{
  "_format": "hh-sol-artifact-1",
  "contractName": "SupplyChain",
  "sourceName": "contracts/SupplyChain.sol",
  "abi": [
    {
      "anonymous": false,
      "inputs": [
        {
          "indexed": false,
          "internalType": "uint256",
          "name": "consumerId",
          "type": "uint256"
        },
        {
          "indexed": false,
          "internalType": "address",
          "name": "consumerEthAddress",
          "type": "address"
        }
      ],
      "name": "ConsumerAdded",
      "type": "event"
    },
    {
      "anonymous": false,
      "inputs": [
        {
          "indexed": false,
          "internalType": "uint256",
          "name": "distributorId",
          "type": "uint256"
        },
        {
          "indexed": false,
          "internalType": "address",
          "name": "distributorEthAddress",
          "type": "address"
        }
      ],
      "name": "DistributorAdded",
      "type": "event"
    },
    {
      "anonymous": false,
      "inputs": [
        {
          "indexed": false,
          "internalType": "uint256",
          "name": "id",
          "type": "uint256"
        },
        {
          "indexed": false,
          "internalType": "enum SupplyChain.Stages",
          "name": "stage",
          "type": "uint8"
        },
        {
          "indexed": false,
          "internalType": "address",
          "name": "owner",
          "type": "address"
        },
        {
          "indexed": false,
          "internalType": "uint256",
          "name": "timestamp",
          "type": "uint256"
        }
      ],
      "name": "DrugStageChanged",
      "type": "event"
    },
    {
      "anonymous": false,
      "inputs": [
        {
          "indexed": false,
          "internalType": "uint256",
          "name": "manufacturerId",
          "type": "uint256"
        },
        {
          "indexed": false,
          "internalType": "address",
          "name": "manufacturerEthAddress",
          "type": "address"
        }
      ],
      "name": "ManufacturerAdded",
      "type": "event"
    },
    {
      "anonymous": false,
      "inputs": [
        {
          "indexed": false,
          "internalType": "uint256",
          "name": "pharmacyId",
          "type": "uint256"
        },
        {
          "indexed": false,
          "internalType": "address",
          "name": "pharmacyEthAddress",
          "type": "address"
        }
      ],
      "name": "PharmacyAdded",
      "type": "event"
    },
    {
      "anonymous": false,
      "inputs": [
        {
          "indexed": false,
          "internalType": "uint256",
          "name": "wholeSellerId",
          "type": "uint256"
        },
        {
          "indexed": false,
          "internalType": "address",
          "name": "wholeSellerEthAddress",
          "type": "address"
        }
      ],
      "name": "WholeSellerAdded",
      "type": "event"
    },
    {
      "inputs": [
        {
          "internalType": "uint256",
          "name": "_consumerId",
          "type": "uint256"
        },
        {
          "internalType": "string",
          "name": "_consumerName",
          "type": "string"
        },
        {
          "internalType": "address",
          "name": "_consumerEthAddress",
          "type": "address"
        }
      ],
      "name": "addConsumer",
      "outputs": [],
      "stateMutability": "nonpayable",
      "type": "function"
    },
    {
      "inputs": [
        {
          "internalType": "uint256",
          "name": "_distributorId",
          "type": "uint256"
        },
        {
          "internalType": "string",
          "name": "_distributorCompany",
          "type": "string"
        },
        {
          "internalType": "string",
          "name": "_distributorLocation",
          "type": "string"
        },
        {
          "internalType": "address",
          "name": "_distributorEthAddress",
          "type": "address"
        }
      ],
      "name": "addDistributor",
      "outputs": [],
      "stateMutability": "nonpayable",
      "type": "function"
    },
    {
      "inputs": [
        {
          "internalType": "uint256",
          "name": "_id",
          "type": "uint256"
        },
        {
          "internalType": "string",
          "name": "_name",
          "type": "string"
        }
      ],
      "name": "addDrug",
      "outputs": [],
      "stateMutability": "nonpayable",
      "type": "function"
    },
    {
      "inputs": [
        {
          "internalType": "uint256",
          "name": "_manufacturerId",
          "type": "uint256"
        },
        {
          "internalType": "string",
          "name": "_manufacturerCompany",
          "type": "string"
        },
        {
          "internalType": "string",
          "name": "_manufacturerLocation",
          "type": "string"
        },
        {
          "internalType": "address",
          "name": "_manufacturerEthAddress",
          "type": "address"
        }
      ],
      "name": "addManufacturer",
      "outputs": [],
      "stateMutability": "nonpayable",
      "type": "function"
    },
    {
      "inputs": [
        {
          "internalType": "uint256",
          "name": "_pharmacyId",
          "type": "uint256"
        },
        {
          "internalType": "string",
          "name": "_pharmacyCompany",
          "type": "string"
        },
        {
          "internalType": "string",
          "name": "_pharmacyLocation",
          "type": "string"
        },
        {
          "internalType": "address",
          "name": "_pharmacyEthAddress",
          "type": "address"
        }
      ],
      "name": "addPharmacy",
      "outputs": [],
      "stateMutability": "nonpayable",
      "type": "function"
    },
    {
      "inputs": [
        {
          "internalType": "uint256",
          "name": "_wholeSellerId",
          "type": "uint256"
        },
        {
          "internalType": "string",
          "name": "_wholeSellerCompany",
          "type": "string"
        },
        {
          "internalType": "string",
          "name": "_wholeSellerLocation",
          "type": "string"
        },
        {
          "internalType": "address",
          "name": "_wholeSellerEthAddress",
          "type": "address"
        }
      ],
      "name": "addWholeSeller",
      "outputs": [],
      "stateMutability": "nonpayable",
      "type": "function"
    },
    {
      "inputs": [
        {
          "internalType": "uint256",
          "name": "",
          "type": "uint256"
        }
      ],
      "name": "consumers",
      "outputs": [
        {
          "internalType": "uint256",
          "name": "consumerId",
          "type": "uint256"
        },
        {
          "internalType": "string",
          "name": "consumerName",
          "type": "string"
        },
        {
          "internalType": "address",
          "name": "consumerEthAddress",
          "type": "address"
        }
      ],
      "stateMutability": "view",
      "type": "function"
    },
    {
      "inputs": [
        {
          "internalType": "uint256",
          "name": "",
          "type": "uint256"
        }
      ],
      "name": "distributors",
      "outputs": [
        {
          "internalType": "uint256",
          "name": "distributorId",
          "type": "uint256"
        },
        {
          "internalType": "string",
          "name": "distributorCompany",
          "type": "string"
        },
        {
          "internalType": "string",
          "name": "distributorLocation",
          "type": "string"
        },
        {
          "internalType": "address",
          "name": "distributorEthAddress",
          "type": "address"
        }
      ],
      "stateMutability": "view",
      "type": "function"
    },
    {
      "inputs": [
        {
          "internalType": "uint256",
          "name": "",
          "type": "uint256"
        }
      ],
      "name": "drugIds",
      "outputs": [
        {
          "internalType": "uint256",
          "name": "",
          "type": "uint256"
        }
      ],
      "stateMutability": "view",
      "type": "function"
    },
    {
      "inputs": [
        {
          "internalType": "uint256",
          "name": "",
          "type": "uint256"
        }
      ],
      "name": "drugs",
      "outputs": [
        {
          "internalType": "uint256",
          "name": "id",
          "type": "uint256"
        },
        {
          "internalType": "string",
          "name": "name",
          "type": "string"
        },
        {
          "internalType": "enum SupplyChain.Stages",
          "name": "stage",
          "type": "uint8"
        },
        {
          "internalType": "address",
          "name": "owner",
          "type": "address"
        },
        {
          "internalType": "uint256",
          "name": "timestamp",
          "type": "uint256"
        }
      ],
      "stateMutability": "view",
      "type": "function"
    },
    {
      "inputs": [
        {
          "internalType": "uint256",
          "name": "_id",
          "type": "uint256"
        }
      ],
      "name": "getDrugDetails",
      "outputs": [
        {
          "internalType": "uint256",
          "name": "",
          "type": "uint256"
        },
        {
          "internalType": "string",
          "name": "",
          "type": "string"
        },
        {
          "internalType": "enum SupplyChain.Stages",
          "name": "",
          "type": "uint8"
        },
        {
          "internalType": "address",
          "name": "",
          "type": "address"
        },
        {
          "internalType": "uint256",
          "name": "",
          "type": "uint256"
        }
      ],
      "stateMutability": "view",
      "type": "function"
    },
    {
      "inputs": [
        {
          "internalType": "uint256",
          "name": "_id",
          "type": "uint256"
        }
      ],
      "name": "getDrugStatus",
      "outputs": [
        {
          "internalType": "enum SupplyChain.Stages",
          "name": "",
          "type": "uint8"
        },
        {
          "internalType": "address",
          "name": "",
          "type": "address"
        },
        {
          "internalType": "uint256",
          "name": "",
          "type": "uint256"
        }
      ],
      "stateMutability": "view",
      "type": "function"
    },
    {
      "inputs": [
        {
          "internalType": "uint256",
          "name": "",
          "type": "uint256"
        }
      ],
      "name": "manufacturers",
      "outputs": [
        {
          "internalType": "uint256",
          "name": "manufacturerId",
          "type": "uint256"
        },
        {
          "internalType": "string",
          "name": "manufacturerCompany",
          "type": "string"
        },
        {
          "internalType": "string",
          "name": "manufacturerLocation",
          "type": "string"
        },
        {
          "internalType": "address",
          "name": "manufacturerEthAddress",
          "type": "address"
        }
      ],
      "stateMutability": "view",
      "type": "function"
    },
    {
      "inputs": [
        {
          "internalType": "uint256",
          "name": "",
          "type": "uint256"
        }
      ],
      "name": "pharmacies",
      "outputs": [
        {
          "internalType": "uint256",
          "name": "pharmacyId",
          "type": "uint256"
        },
        {
          "internalType": "string",
          "name": "pharmacyCompany",
          "type": "string"
        },
        {
          "internalType": "string",
          "name": "pharmacyLocation",
          "type": "string"
        },
        {
          "internalType": "address",
          "name": "pharmacyEthAddress",
          "type": "address"
        }
      ],
      "stateMutability": "view",
      "type": "function"
    },
    {
      "inputs": [
        {
          "internalType": "uint256",
          "name": "_id",
          "type": "uint256"
        }
      ],
      "name": "purchaseDrug",
      "outputs": [],
      "stateMutability": "nonpayable",
      "type": "function"
    },
    {
      "inputs": [
        {
          "internalType": "uint256",
          "name": "_id",
          "type": "uint256"
        }
      ],
      "name": "receiveDrug",
      "outputs": [],
      "stateMutability": "nonpayable",
      "type": "function"
    },
    {
      "inputs": [
        {
          "internalType": "uint256",
          "name": "_id",
          "type": "uint256"
        }
      ],
      "name": "shipDrug",
      "outputs": [],
      "stateMutability": "nonpayable",
      "type": "function"
    },
    {
      "inputs": [
        {
          "internalType": "uint256",
          "name": "_id",
          "type": "uint256"
        }
      ],
      "name": "traceDrug",
      "outputs": [
        {
          "components": [
            {
              "internalType": "address",
              "name": "from",
              "type": "address"
            },
            {
              "internalType": "address",
              "name": "to",
              "type": "address"
            },
            {
              "internalType": "enum SupplyChain.Stages",
              "name": "stage",
              "type": "uint8"
            },
            {
              "internalType": "uint256",
              "name": "timestamp",
              "type": "uint256"
            }
          ],
          "internalType": "struct SupplyChain.Transfer[]",
          "name": "",
          "type": "tuple[]"
        }
      ],
      "stateMutability": "view",
      "type": "function"
    },
    {
      "inputs": [
        {
          "internalType": "uint256",
          "name": "",
          "type": "uint256"
        }
      ],
      "name": "wholeSellers",
      "outputs": [
        {
          "internalType": "uint256",
          "name": "wholeSellerId",
          "type": "uint256"
        },
        {
          "internalType": "string",
          "name": "wholeSellerCompany",
          "type": "string"
        },
        {
          "internalType": "string",
          "name": "wholeSellerLocation",
          "type": "string"
        },
        {
          "internalType": "address",
          "name": "wholeSellerEthAddress",
          "type": "address"
        }
      ],
      "stateMutability": "view",
      "type": "function"
    }
  ],
  "bytecode": "0x608060405234801561001057600080fd5b5061398a806100206000396000f3fe608060405234801561001057600080fd5b50600436106101205760003560e01c80638a5acd73116100ad578063e003e89311610071578063e003e89314610375578063e74a55f414610391578063f0dd3043146103ad578063fca5e61e146103c9578063ff6e6e08146103fd57610120565b80638a5acd73146102a757806390175af1146102da578063960de73a1461030d578063b638714414610329578063d70518c71461035957610120565b80634d2f163c116100f45780634d2f163c146101d657806350b492ba1461020857806360ee0b6d1461023b57806367383d2c1461026f57806383be91e51461028b57610120565b8062790b8e146101255780630ea09486146101555780631dd1b029146101715780634651ed3d146101a4575b600080fd5b61013f600480360381019061013a9190612bde565b610419565b60405161014c9190613031565b60405180910390f35b61016f600480360381019061016a9190612bde565b6105d9565b005b61018b60048036038101906101869190612bde565b610a4c565b60405161019b94939291906132eb565b60405180910390f35b6101be60048036038101906101b99190612bde565b610bbc565b6040516101cd93929190613253565b60405180910390f35b6101f060048036038101906101eb9190612bde565b610c9e565b6040516101ff93929190613053565b60405180910390f35b610222600480360381019061021d9190612bde565b610fc2565b60405161023294939291906132eb565b60405180910390f35b61025560048036038101906102509190612bde565b611132565b604051610266959493929190613291565b60405180910390f35b61028960048036038101906102849190612cd6565b61146a565b005b6102a560048036038101906102a09190612bde565b611598565b005b6102c160048036038101906102bc9190612bde565b6119f3565b6040516102d194939291906132eb565b60405180910390f35b6102f460048036038101906102ef9190612bde565b611b63565b60405161030494939291906132eb565b60405180910390f35b61032760048036038101906103229190612bde565b611cd3565b005b610343600480360381019061033e9190612bde565b612147565b60405161035091906131ca565b60405180910390f35b610373600480360381019061036e9190612c0b565b61216b565b005b61038f600480360381019061038a9190612cd6565b612522565b005b6103ab60048036038101906103a69190612c67565b612650565b005b6103c760048036038101906103c29190612cd6565b61275a565b005b6103e360048036038101906103de9190612bde565b612888565b6040516103f4959493929190613291565b60405180910390f35b61041760048036038101906104129190612cd6565b612973565b005b6060600060056000848152602001908152602001600020600001541415610475576040517f08c379a000000000000000000000000000000000000000000000000000000000815260040161046c9061314a565b60405180910390fd5b60056000838152602001908152602001600020600401805480602002602001604051908101604052809291908181526020016000905b828210156105ce57838290600052602060002090600302016040518060800160405290816000820160009054906101000a900473ffffffffffffffffffffffffffffffffffffffff1673ffffffffffffffffffffffffffffffffffffffff1673ffffffffffffffffffffffffffffffffffffffff1681526020016001820160009054906101000a900473ffffffffffffffffffffffffffffffffffffffff1673ffffffffffffffffffffffffffffffffffffffff1673ffffffffffffffffffffffffffffffffffffffff1681526020016001820160149054906101000a900460ff16600381111561059f5761059e613567565b5b60038111156105b1576105b0613567565b5b8152602001600282015481525050815260200190600101906104ab565b505050509050919050565b6000805b60028054905081101561067f573373ffffffffffffffffffffffffffffffffffffffff1660028281548110610615576106146135c5565b5b906000526020600020906004020160030160009054906101000a900473ffffffffffffffffffffffffffffffffffffffff1673ffffffffffffffffffffffffffffffffffffffff16141561066c576001915061067f565b8080610677906134ef565b9150506105dd565b50806106c0576040517f08c379a00000000000000000000000000000000000000000000000000000000081526004016106b79061312a565b60405180910390fd5b60006005600084815260200190815260200160002060000154141561071a576040517f08c379a00000000000000000000000000000000000000000000000000000000081526004016107119061314a565b60405180910390fd5b6002600381111561072e5761072d613567565b5b6005600084815260200190815260200160002060020160009054906101000a900460ff16600381111561076457610763613567565b5b146107a4576040517f08c379a000000000000000000000000000000000000000000000000000000000815260040161079b9061316a565b60405180910390fd5b3373ffffffffffffffffffffffffffffffffffffffff166005600084815260200190815260200160002060020160019054906101000a900473ffffffffffffffffffffffffffffffffffffffff1673ffffffffffffffffffffffffffffffffffffffff1614610848576040517f08c379a000000000000000000000000000000000000000000000000000000000815260040161083f9061318a565b60405180910390fd5b6005600083815260200190815260200160002060040160405180608001604052803373ffffffffffffffffffffffffffffffffffffffff1681526020013373ffffffffffffffffffffffffffffffffffffffff1681526020016003808111156108b4576108b3613567565b5b815260200142815250908060018154018082558091505060019003906000526020600020906003020160009091909190915060008201518160000160006101000a81548173ffffffffffffffffffffffffffffffffffffffff021916908373ffffffffffffffffffffffffffffffffffffffff16021790555060208201518160010160006101000a81548173ffffffffffffffffffffffffffffffffffffffff021916908373ffffffffffffffffffffffffffffffffffffffff16021790555060408201518160010160146101000a81548160ff0219169083600381111561099f5761099e613567565b5b021790555060608201518160020155505060036005600084815260200190815260200160002060020160006101000a81548160ff021916908360038111156109ea576109e9613567565b5b02179055504260056000848152602001908152602001600020600301819055507f26639611a00b60c14fb0770de019f4644241f826caa37d7021d8456854c2eb948260033342604051610a40949392919061320e565b60405180910390a15050565b60018181548110610a5c57600080fd5b9060005260206000209060040201600091509050806000015490806001018054610a859061348c565b80601f0160208091040260200160405190810160405280929190818152602001828054610ab19061348c565b8015610afe5780601f10610ad357610100808354040283529160200191610afe565b820191906000526020600020905b815481529060010190602001808311610ae157829003601f168201915b505050505090806002018054610b139061348c565b80601f0160208091040260200160405190810160405280929190818152602001828054610b3f9061348c565b8015610b8c5780601f10610b6157610100808354040283529160200191610b8c565b820191906000526020600020905b815481529060010190602001808311610b6f57829003601f168201915b5050505050908060030160009054906101000a900473ffffffffffffffffffffffffffffffffffffffff16905084565b60048181548110610bcc57600080fd5b9060005260206000209060030201600091509050806000015490806001018054610bf59061348c565b80601f0160208091040260200160405190810160405280929190818152602001828054610c219061348c565b8015610c6e5780601f10610c4357610100808354040283529160200191610c6e565b820191906000526020600020905b815481529060010190602001808311610c5157829003601f168201915b5050505050908060020160009054906101000a900473ffffffffffffffffffffffffffffffffffffffff16905083565b60008060008060056000868152602001908152602001600020600001541415610cfc576040517f08c379a0000000000000000000000000000000000000000000000000000000008152600401610cf39061314a565b60405180910390fd5b6000600560008681526020019081526020016000206040518060c001604052908160008201548152602001600182018054610d369061348c565b80601f0160208091040260200160405190810160405280929190818152602001828054610d629061348c565b8015610daf5780601f10610d8457610100808354040283529160200191610daf565b820191906000526020600020905b815481529060010190602001808311610d9257829003601f168201915b505050505081526020016002820160009054906101000a900460ff166003811115610ddd57610ddc613567565b5b6003811115610def57610dee613567565b5b81526020016002820160019054906101000a900473ffffffffffffffffffffffffffffffffffffffff1673ffffffffffffffffffffffffffffffffffffffff1673ffffffffffffffffffffffffffffffffffffffff1681526020016003820154815260200160048201805480602002602001604051908101604052809291908181526020016000905b82821015610f9b57838290600052602060002090600302016040518060800160405290816000820160009054906101000a900473ffffffffffffffffffffffffffffffffffffffff1673ffffffffffffffffffffffffffffffffffffffff1673ffffffffffffffffffffffffffffffffffffffff1681526020016001820160009054906101000a900473ffffffffffffffffffffffffffffffffffffffff1673ffffffffffffffffffffffffffffffffffffffff1673ffffffffffffffffffffffffffffffffffffffff1681526020016001820160149054906101000a900460ff166003811115610f6c57610f6b613567565b5b6003811115610f7e57610f7d613567565b5b815260200160028201548152505081526020019060010190610e78565b50505050815250509050806040015181606001518260800151935093509350509193909250565b60028181548110610fd257600080fd5b9060005260206000209060040201600091509050806000015490806001018054610ffb9061348c565b80601f01602080910402602001604051908101604052809291908181526020018280546110279061348c565b80156110745780601f1061104957610100808354040283529160200191611074565b820191906000526020600020905b81548152906001019060200180831161105757829003601f168201915b5050505050908060020180546110899061348c565b80601f01602080910402602001604051908101604052809291908181526020018280546110b59061348c565b80156111025780601f106110d757610100808354040283529160200191611102565b820191906000526020600020905b8154815290600101906020018083116110e557829003601f168201915b5050505050908060030160009054906101000a900473ffffffffffffffffffffffffffffffffffffffff16905084565b6000606060008060008060056000888152602001908152602001600020600001541415611194576040517f08c379a000000000000000000000000000000000000000000000000000000000815260040161118b9061314a565b60405180910390fd5b6000600560008881526020019081526020016000206040518060c0016040529081600082015481526020016001820180546111ce9061348c565b80601f01602080910402602001604051908101604052809291908181526020018280546111fa9061348c565b80156112475780601f1061121c57610100808354040283529160200191611247565b820191906000526020600020905b81548152906001019060200180831161122a57829003601f168201915b505050505081526020016002820160009054906101000a900460ff16600381111561127557611274613567565b5b600381111561128757611286613567565b5b81526020016002820160019054906101000a900473ffffffffffffffffffffffffffffffffffffffff1673ffffffffffffffffffffffffffffffffffffffff1673ffffffffffffffffffffffffffffffffffffffff1681526020016003820154815260200160048201805480602002602001604051908101604052809291908181526020016000905b8282101561143357838290600052602060002090600302016040518060800160405290816000820160009054906101000a900473ffffffffffffffffffffffffffffffffffffffff1673ffffffffffffffffffffffffffffffffffffffff1673ffffffffffffffffffffffffffffffffffffffff1681526020016001820160009054906101000a900473ffffffffffffffffffffffffffffffffffffffff1673ffffffffffffffffffffffffffffffffffffffff1673ffffffffffffffffffffffffffffffffffffffff1681526020016001820160149054906101000a900460ff16600381111561140457611403613567565b5b600381111561141657611415613567565b5b815260200160028201548152505081526020019060010190611310565b5050505081525050905080600001518160200151826040015183606001518460800151955095509550955095505091939590929450565b600260405180608001604052808681526020018581526020018481526020018373ffffffffffffffffffffffffffffffffffffffff1681525090806001815401808255809150506001900390600052602060002090600402016000909190919091506000820151816000015560208201518160010190805190602001906114f2929190612aa1565b50604082015181600201908051906020019061150f929190612aa1565b5060608201518160030160006101000a81548173ffffffffffffffffffffffffffffffffffffffff021916908373ffffffffffffffffffffffffffffffffffffffff16021790555050507febc24a2f46da30574265af7b9b9ffb94510d8d9f58e69fef90df745775de93f3848260405161158a9291906131e5565b60405180910390a150505050565b6000805b60018054905081101561163e573373ffffffffffffffffffffffffffffffffffffffff16600182815481106115d4576115d36135c5565b5b906000526020600020906004020160030160009054906101000a900473ffffffffffffffffffffffffffffffffffffffff1673ffffffffffffffffffffffffffffffffffffffff16141561162b576001915061163e565b8080611636906134ef565b91505061159c565b508061167f576040517f08c379a00000000000000000000000000000000000000000000000000000000081526004016116769061310a565b60405180910390fd5b6000600560008481526020019081526020016000206000015414156116d9576040517f08c379a00000000000000000000000000000000000000000000000000000000081526004016116d09061314a565b60405180910390fd5b600060038111156116ed576116ec613567565b5b6005600084815260200190815260200160002060020160009054906101000a900460ff16600381111561172357611722613567565b5b14611763576040517f08c379a000000000000000000000000000000000000000000000000000000000815260040161175a906130ca565b60405180910390fd5b6005600083815260200190815260200160002060040160405180608001604052806005600086815260200190815260200160002060020160019054906101000a900473ffffffffffffffffffffffffffffffffffffffff1673ffffffffffffffffffffffffffffffffffffffff1681526020013373ffffffffffffffffffffffffffffffffffffffff1681526020016001600381111561180657611805613567565b5b815260200142815250908060018154018082558091505060019003906000526020600020906003020160009091909190915060008201518160000160006101000a81548173ffffffffffffffffffffffffffffffffffffffff021916908373ffffffffffffffffffffffffffffffffffffffff16021790555060208201518160010160006101000a81548173ffffffffffffffffffffffffffffffffffffffff021916908373ffffffffffffffffffffffffffffffffffffffff16021790555060408201518160010160146101000a81548160ff021916908360038111156118f1576118f0613567565b5b0217905550606082015181600201555050336005600084815260200190815260200160002060020160016101000a81548173ffffffffffffffffffffffffffffffffffffffff021916908373ffffffffffffffffffffffffffffffffffffffff16021790555060016005600084815260200190815260200160002060020160006101000a81548160ff0219169083600381111561199157611990613567565b5b02179055504260056000848152602001908152602001600020600301819055507f26639611a00b60c14fb0770de019f4644241f826caa37d7021d8456854c2eb9482600133426040516119e7949392919061320e565b60405180910390a15050565b60038181548110611a0357600080fd5b9060005260206000209060040201600091509050806000015490806001018054611a2c9061348c565b80601f0160208091040260200160405190810160405280929190818152602001828054611a589061348c565b8015611aa55780601f10611a7a57610100808354040283529160200191611aa5565b820191906000526020600020905b815481529060010190602001808311611a8857829003601f168201915b505050505090806002018054611aba9061348c565b80601f0160208091040260200160405190810160405280929190818152602001828054611ae69061348c565b8015611b335780601f10611b0857610100808354040283529160200191611b33565b820191906000526020600020905b815481529060010190602001808311611b1657829003601f168201915b5050505050908060030160009054906101000a900473ffffffffffffffffffffffffffffffffffffffff16905084565b60008181548110611b7357600080fd5b9060005260206000209060040201600091509050806000015490806001018054611b9c9061348c565b80601f0160208091040260200160405190810160405280929190818152602001828054611bc89061348c565b8015611c155780601f10611bea57610100808354040283529160200191611c15565b820191906000526020600020905b815481529060010190602001808311611bf857829003601f168201915b505050505090806002018054611c2a9061348c565b80601f0160208091040260200160405190810160405280929190818152602001828054611c569061348c565b8015611ca35780601f10611c7857610100808354040283529160200191611ca3565b820191906000526020600020905b815481529060010190602001808311611c8657829003601f168201915b5050505050908060030160009054906101000a900473ffffffffffffffffffffffffffffffffffffffff16905084565b6000805b600180549050811015611d79573373ffffffffffffffffffffffffffffffffffffffff1660018281548110611d0f57611d0e6135c5565b5b906000526020600020906004020160030160009054906101000a900473ffffffffffffffffffffffffffffffffffffffff1673ffffffffffffffffffffffffffffffffffffffff161415611d665760019150611d79565b8080611d71906134ef565b915050611cd7565b5080611dba576040517f08c379a0000000000000000000000000000000000000000000000000000000008152600401611db19061310a565b60405180910390fd5b600060056000848152602001908152602001600020600001541415611e14576040517f08c379a0000000000000000000000000000000000000000000000000000000008152600401611e0b9061314a565b60405180910390fd5b60016003811115611e2857611e27613567565b5b6005600084815260200190815260200160002060020160009054906101000a900460ff166003811115611e5e57611e5d613567565b5b14611e9e576040517f08c379a0000000000000000000000000000000000000000000000000000000008152600401611e95906131aa565b60405180910390fd5b3373ffffffffffffffffffffffffffffffffffffffff166005600084815260200190815260200160002060020160019054906101000a900473ffffffffffffffffffffffffffffffffffffffff1673ffffffffffffffffffffffffffffffffffffffff1614611f42576040517f08c379a0000000000000000000000000000000000000000000000000000000008152600401611f39906130aa565b60405180910390fd5b6005600083815260200190815260200160002060040160405180608001604052803373ffffffffffffffffffffffffffffffffffffffff1681526020013373ffffffffffffffffffffffffffffffffffffffff16815260200160026003811115611faf57611fae613567565b5b815260200142815250908060018154018082558091505060019003906000526020600020906003020160009091909190915060008201518160000160006101000a81548173ffffffffffffffffffffffffffffffffffffffff021916908373ffffffffffffffffffffffffffffffffffffffff16021790555060208201518160010160006101000a81548173ffffffffffffffffffffffffffffffffffffffff021916908373ffffffffffffffffffffffffffffffffffffffff16021790555060408201518160010160146101000a81548160ff0219169083600381111561209a57612099613567565b5b021790555060608201518160020155505060026005600084815260200190815260200160002060020160006101000a81548160ff021916908360038111156120e5576120e4613567565b5b02179055504260056000848152602001908152602001600020600301819055507f26639611a00b60c14fb0770de019f4644241f826caa37d7021d8456854c2eb94826002334260405161213b949392919061320e565b60405180910390a15050565b6006818154811061215757600080fd5b906000526020600020016000915090505481565b6000805b600080549050811015612211573373ffffffffffffffffffffffffffffffffffffffff16600082815481106121a7576121a66135c5565b5b906000526020600020906004020160030160009054906101000a900473ffffffffffffffffffffffffffffffffffffffff1673ffffffffffffffffffffffffffffffffffffffff1614156121fe5760019150612211565b8080612209906134ef565b91505061216f565b5080612252576040517f08c379a00000000000000000000000000000000000000000000000000000000081526004016122499061308a565b60405180910390fd5b60006005600085815260200190815260200160002060000154146122ab576040517f08c379a00000000000000000000000000000000000000000000000000000000081526004016122a2906130ea565b60405180910390fd5b6000600560008581526020019081526020016000209050838160000181905550828160010190805190602001906122e3929190612aa1565b5060008160020160006101000a81548160ff0219169083600381111561230c5761230b613567565b5b0217905550338160020160016101000a81548173ffffffffffffffffffffffffffffffffffffffff021916908373ffffffffffffffffffffffffffffffffffffffff1602179055504281600301819055506006849080600181540180825580915050600190039060005260206000200160009091909190915055806004016040518060800160405280600073ffffffffffffffffffffffffffffffffffffffff1681526020013373ffffffffffffffffffffffffffffffffffffffff168152602001600060038111156123e2576123e1613567565b5b815260200142815250908060018154018082558091505060019003906000526020600020906003020160009091909190915060008201518160000160006101000a81548173ffffffffffffffffffffffffffffffffffffffff021916908373ffffffffffffffffffffffffffffffffffffffff16021790555060208201518160010160006101000a81548173ffffffffffffffffffffffffffffffffffffffff021916908373ffffffffffffffffffffffffffffffffffffffff16021790555060408201518160010160146101000a81548160ff021916908360038111156124cd576124cc613567565b5b02179055506060820151816002015550507f26639611a00b60c14fb0770de019f4644241f826caa37d7021d8456854c2eb948460003342604051612514949392919061320e565b60405180910390a150505050565b600060405180608001604052808681526020018581526020018481526020018373ffffffffffffffffffffffffffffffffffffffff1681525090806001815401808255809150506001900390600052602060002090600402016000909190919091506000820151816000015560208201518160010190805190602001906125aa929190612aa1565b5060408201518160020190805190602001906125c7929190612aa1565b5060608201518160030160006101000a81548173ffffffffffffffffffffffffffffffffffffffff021916908373ffffffffffffffffffffffffffffffffffffffff16021790555050507f0c4fa9e6acbd30cb4c06f9b979b3336c2b8dee8935130c40036666b509e7313184826040516126429291906131e5565b60405180910390a150505050565b600460405180606001604052808581526020018481526020018373ffffffffffffffffffffffffffffffffffffffff1681525090806001815401808255809150506001900390600052602060002090600302016000909190919091506000820151816000015560208201518160010190805190602001906126d2929190612aa1565b5060408201518160020160006101000a81548173ffffffffffffffffffffffffffffffffffffffff021916908373ffffffffffffffffffffffffffffffffffffffff16021790555050507f4e5aab67fb6878a7c5437d638d002992f2b503107c053f38483f6b2949487493838260405161274d9291906131e5565b60405180910390a1505050565b600160405180608001604052808681526020018581526020018481526020018373ffffffffffffffffffffffffffffffffffffffff1681525090806001815401808255809150506001900390600052602060002090600402016000909190919091506000820151816000015560208201518160010190805190602001906127e2929190612aa1565b5060408201518160020190805190602001906127ff929190612aa1565b5060608201518160030160006101000a81548173ffffffffffffffffffffffffffffffffffffffff021916908373ffffffffffffffffffffffffffffffffffffffff16021790555050507f18774f954d5175d0f3b3b48dfe30dbbe07b7d8ecba9f32e4a6c7e06e22a0e894848260405161287a9291906131e5565b60405180910390a150505050565b60056020528060005260406000206000915090508060000154908060010180546128b19061348c565b80601f01602080910402602001604051908101604052809291908181526020018280546128dd9061348c565b801561292a5780601f106128ff5761010080835404028352916020019161292a565b820191906000526020600020905b81548152906001019060200180831161290d57829003601f168201915b5050505050908060020160009054906101000a900460ff16908060020160019054906101000a900473ffffffffffffffffffffffffffffffffffffffff16908060030154905085565b600360405180608001604052808681526020018581526020018481526020018373ffffffffffffffffffffffffffffffffffffffff1681525090806001815401808255809150506001900390600052602060002090600402016000909190919091506000820151816000015560208201518160010190805190602001906129fb929190612aa1565b506040820151816002019080519060200190612a18929190612aa1565b5060608201518160030160006101000a81548173ffffffffffffffffffffffffffffffffffffffff021916908373ffffffffffffffffffffffffffffffffffffffff16021790555050507f0bdd73f58344f4da8a216bfd5f1c0d65fb979f04097fd7ca7993f4cdc52f85c38482604051612a939291906131e5565b60405180910390a150505050565b828054612aad9061348c565b90600052602060002090601f016020900481019282612acf5760008555612b16565b82601f10612ae857805160ff1916838001178555612b16565b82800160010185558215612b16579182015b82811115612b15578251825591602001919060010190612afa565b5b509050612b239190612b27565b5090565b5b80821115612b40576000816000905550600101612b28565b5090565b6000612b57612b5284613363565b61333e565b905082815260208101848484011115612b7357612b72613628565b5b612b7e84828561344a565b509392505050565b600081359050612b9581613926565b92915050565b600082601f830112612bb057612baf613623565b5b8135612bc0848260208601612b44565b91505092915050565b600081359050612bd88161393d565b92915050565b600060208284031215612bf457612bf3613632565b5b6000612c0284828501612bc9565b91505092915050565b60008060408385031215612c2257612c21613632565b5b6000612c3085828601612bc9565b925050602083013567ffffffffffffffff811115612c5157612c5061362d565b5b612c5d85828601612b9b565b9150509250929050565b600080600060608486031215612c8057612c7f613632565b5b6000612c8e86828701612bc9565b935050602084013567ffffffffffffffff811115612caf57612cae61362d565b5b612cbb86828701612b9b565b9250506040612ccc86828701612b86565b9150509250925092565b60008060008060808587031215612cf057612cef613632565b5b6000612cfe87828801612bc9565b945050602085013567ffffffffffffffff811115612d1f57612d1e61362d565b5b612d2b87828801612b9b565b935050604085013567ffffffffffffffff811115612d4c57612d4b61362d565b5b612d5887828801612b9b565b9250506060612d6987828801612b86565b91505092959194509250565b6000612d818383612fbe565b60808301905092915050565b612d96816133e9565b82525050565b612da5816133e9565b82525050565b6000612db6826133a4565b612dc081856133c7565b9350612dcb83613394565b8060005b83811015612dfc578151612de38882612d75565b9750612dee836133ba565b925050600181019050612dcf565b5085935050505092915050565b612e1281613438565b82525050565b612e2181613438565b82525050565b6000612e32826133af565b612e3c81856133d8565b9350612e4c818560208601613459565b612e5581613637565b840191505092915050565b6000612e6d6027836133d8565b9150612e7882613648565b604082019050919050565b6000612e906028836133d8565b9150612e9b82613697565b604082019050919050565b6000612eb36025836133d8565b9150612ebe826136e6565b604082019050919050565b6000612ed66013836133d8565b9150612ee182613735565b602082019050919050565b6000612ef96026836133d8565b9150612f048261375e565b604082019050919050565b6000612f1c6026836133d8565b9150612f27826137ad565b604082019050919050565b6000612f3f6013836133d8565b9150612f4a826137fc565b602082019050919050565b6000612f626024836133d8565b9150612f6d82613825565b604082019050919050565b6000612f85602b836133d8565b9150612f9082613874565b604082019050919050565b6000612fa86022836133d8565b9150612fb3826138c3565b604082019050919050565b608082016000820151612fd46000850182612d8d565b506020820151612fe76020850182612d8d565b506040820151612ffa6040850182612e09565b50606082015161300d6060850182613013565b50505050565b61301c8161342e565b82525050565b61302b8161342e565b82525050565b6000602082019050818103600083015261304b8184612dab565b905092915050565b60006060820190506130686000830186612e18565b6130756020830185612d9c565b6130826040830184613022565b949350505050565b600060208201905081810360008301526130a381612e60565b9050919050565b600060208201905081810360008301526130c381612e83565b9050919050565b600060208201905081810360008301526130e381612ea6565b9050919050565b6000602082019050818103600083015261310381612ec9565b9050919050565b6000602082019050818103600083015261312381612eec565b9050919050565b6000602082019050818103600083015261314381612f0f565b9050919050565b6000602082019050818103600083015261316381612f32565b9050919050565b6000602082019050818103600083015261318381612f55565b9050919050565b600060208201905081810360008301526131a381612f78565b9050919050565b600060208201905081810360008301526131c381612f9b565b9050919050565b60006020820190506131df6000830184613022565b92915050565b60006040820190506131fa6000830185613022565b6132076020830184612d9c565b9392505050565b60006080820190506132236000830187613022565b6132306020830186612e18565b61323d6040830185612d9c565b61324a6060830184613022565b95945050505050565b60006060820190506132686000830186613022565b818103602083015261327a8185612e27565b90506132896040830184612d9c565b949350505050565b600060a0820190506132a66000830188613022565b81810360208301526132b88187612e27565b90506132c76040830186612e18565b6132d46060830185612d9c565b6132e16080830184613022565b9695505050505050565b60006080820190506133006000830187613022565b81810360208301526133128186612e27565b905081810360408301526133268185612e27565b90506133356060830184612d9c565b95945050505050565b6000613348613359565b905061335482826134be565b919050565b6000604051905090565b600067ffffffffffffffff82111561337e5761337d6135f4565b5b61338782613637565b9050602081019050919050565b6000819050602082019050919050565b600081519050919050565b600081519050919050565b6000602082019050919050565b600082825260208201905092915050565b600082825260208201905092915050565b60006133f48261340e565b9050919050565b600081905061340982613912565b919050565b600073ffffffffffffffffffffffffffffffffffffffff82169050919050565b6000819050919050565b6000613443826133fb565b9050919050565b82818337600083830152505050565b60005b8381101561347757808201518184015260208101905061345c565b83811115613486576000848401525b50505050565b600060028204905060018216806134a457607f821691505b602082108114156134b8576134b7613596565b5b50919050565b6134c782613637565b810181811067ffffffffffffffff821117156134e6576134e56135f4565b5b80604052505050565b60006134fa8261342e565b91507fffffffffffffffffffffffffffffffffffffffffffffffffffffffffffffffff82141561352d5761352c613538565b5b600182019050919050565b7f4e487b7100000000000000000000000000000000000000000000000000000000600052601160045260246000fd5b7f4e487b7100000000000000000000000000000000000000000000000000000000600052602160045260246000fd5b7f4e487b7100000000000000000000000000000000000000000000000000000000600052602260045260246000fd5b7f4e487b7100000000000000000000000000000000000000000000000000000000600052603260045260246000fd5b7f4e487b7100000000000000000000000000000000000000000000000000000000600052604160045260246000fd5b600080fd5b600080fd5b600080fd5b600080fd5b6000601f19601f8301169050919050565b7f43616c6c6572206973206e6f7420612072656769737465726564206d616e756660008201527f6163747572657200000000000000000000000000000000000000000000000000602082015250565b7f4f6e6c79207468652063757272656e74206f776e65722063616e20736869702060008201527f7468652064727567000000000000000000000000000000000000000000000000602082015250565b7f44727567206973206e6f7420696e20746865204d616e7566616374757265642060008201527f7374616765000000000000000000000000000000000000000000000000000000602082015250565b7f4472756720616c72656164792065786973747300000000000000000000000000600082015250565b7f43616c6c6572206973206e6f74206120726567697374657265642077686f6c6560008201527f73656c6c65720000000000000000000000000000000000000000000000000000602082015250565b7f43616c6c6572206973206e6f742061207265676973746572656420646973747260008201527f696275746f720000000000000000000000000000000000000000000000000000602082015250565b7f4472756720646f6573206e6f7420657869737400000000000000000000000000600082015250565b7f44727567206973206e6f7420696e2074686520496e57617265686f757365207360008201527f7461676500000000000000000000000000000000000000000000000000000000602082015250565b7f4f6e6c79207468652063757272656e74206f776e65722063616e20726563656960008201527f7665207468652064727567000000000000000000000000000000000000000000602082015250565b7f44727567206973206e6f7420696e2074686520496e5472616e7369742073746160008201527f6765000000000000000000000000000000000000000000000000000000000000602082015250565b6004811061392357613922613567565b5b50565b61392f816133e9565b811461393a57600080fd5b50565b6139468161342e565b811461395157600080fd5b5056fea26469706673582212209d514136233de8e79e9d84ca96a8c7d3e47ded2e4ab3604bddc0fdd19fce9d3c64736f6c63430008070033",
  "linkReferences": {},
  "deployedLinkReferences": {}
}